:020000020000FC
:020000007EC0C0
:100040000DC122982A9A219A239A249A259A2B9AAA
:100050002C9A2D9AA0EFAAB9AFE0ABB9089510E49D
:1000600027E004D016952A95E1F708951F93AAE09A
:10007000B59108E02B98B7FD2B9A2D9A2D98BB0FC0
:100080000A95C1F7AA95A1F7A8E02B9817FD2B9A1E
:100090002D9A2D98110FAA95C1F72C9A0DD02C9856
:1000A0001F910895AFEFAA95BFEFBA959FEF9A956C
:1000B000F1F7D9F7C1F70895F5DFF4DF089551E3BB
:1000C000C0E02AE0BAE0521718F02B0FC395D9F719
:1000D0002B1B521B60E0561301C002C06395D9F779
:1000E00030E02AE0E21718F02B0F3395D9F72B1BDD
:1000F000E21B40E0E41301C008954395D9F7A0E066
:10010000A09300DD0E94210000C0F5E0EAE20E9419
:100110002F001A991DC000C0E0E0F1E030E043E09C
:1001200050E061E072E083E094E0D09100FF14E0E1
:1001300010938100789411E010936F0010E01093F9
:10014000030005E81DEE009385001093840001C0B4
:10015000DCCFEF2FB6D1461301C006C0471301C054
:1001600005C0481307C004C0B9D106C0BED104C041
:10017000C5D102C0CCD100C02C9A2C98AFE5A31BEE
:10018000B3E0C0E14AD1CAD1A0E2BFEFCFEF45D181
:10019000A1E0AE1301C002C0EA95DCCFD09100FF10
:1001A000EF2F00C08ED1489B07C0499B06C04A9BD9
:1001B00005C04B9B04C03CC03BC03AC039C000EFF7
:1001C0001FE00BB91AB900004F9B07C04E9B0BC034
:1001D0004D9B0FC04C9B13C02CC080D12C9A2C98E7
:1001E000461321C012C081D12C9A2C9847131BC0F2
:1001F0000CC084D12C9A2C98481315C006C087D106
:100200002C9A2C9849130FC000C0A0EFB7E0C7E0AC
:100210000BD1AFE1B8E0C0E300D180D1A0E2B0E4FF
:10022000C0E5FBD007C0A0E2B0E5C0E5FDD03FC00F
:10023000BACF00C00FE010EF0BB91AB9A1E0AE13AE
:1002400001C002C0EA95AECF5395F395D09100FF5F
:10025000EF2FA0E8BFEFCFEFE0D07BCF1F930F933E
:1002600003E0801301C012C000E010E0009385009D
:100270001093840002E0801301C004C083951F9195
:100280000F91189580E01F910F91189505E81DEECC
:10029000009385001093840010E4311301C004C062
:1002A00033951F910F9118951F910F9118952998CB
:1002B00080E0D09300FFE09100DD5E170CF403C0F6
:1002C000509300DDE52F0E945F00A1E08A1301C07A
:1002D00004C0A2E08A1381C040C000E0C01303C084
:1002E000F5E0E0E733C001E0C01303C0F5E0E6EB62
:1002F0002DC002E0C01303C0F5E0ECEF27C003E01F
:10030000C01303C0F6E0E2E421C004E0C01303C060
:10031000F6E0E8E81BC005E0C01303C0F6E0EEEC31
:1003200015C006E0C01303C0F7E0E4E10FC007E02A
:10033000C01303C0F7E0EAE509C008E0C01303C03A
:10034000F7E0E0EA03C0F7E0E6EE00C00E942F000D
:10035000562F7BD01A9948C046C000E0301303C026
:10036000FAE0E8EE33C001E0301303C0FBE0EEE258
:100370002DC002E0301303C0FBE0E4E727C003E038
:10038000301303C0FBE0EAEB21C004E0301303C0EC
:10039000FCE0E0E01BC005E0301303C0FCE0E6E455
:1003A00015C006E0301303C0FCE0ECE80FC007E026
:1003B000301303C0FCE0E2ED09C008E0301303C0D5
:1003C000FDE0E8E103C0FDE0EEE500C00E942F0083
:1003D000542F3BD01A9908C006C0F5E0EAE23FDE90
:1003E0001A9902C000C08ECE70CF2B982D9A2D98EE
:1003F000AA95D9F708952B9A2D9A2D98AA95D9F7F1
:1004000008952B9A2D9A2D98AA95D9F708952B988F
:100410002D9A2D98AA95D9F70895CA95F1F7BA950E
:10042000E1F7AA95D1F708950B2F1C2F299A0A9569
:10043000F1F71A95E1F70B2F1C2F299A1A95F1F76E
:100440000A95E1F7AA9581F7089500E0501303C0DB
:10045000F8E0ECE233C001E0501303C0F8E0E2E75B
:100460002DC002E0501303C0F8E0E8EB27C003E022
:10047000501303C0F8E0EEEF21C004E0501303C0B6
:10048000F9E0E4E41BC005E0501303C0F9E0EAE83A
:1004900015C006E0501303C0F9E0E0ED0FC007E01F
:1004A000501303C0FAE0E6E109C008E0501303C0AE
:1004B000FAE0ECE503C0FAE0E2EA00C00E942F0097
:1004C0000895A5E0DA9F8001080FD02F402F4F71CB
:1004D000487F46954695469543950895ACE385DF5C
:1004E000A4E189DFA8E08DDF0895A8E27EDFA4E122
:1004F00082DFA4E17ADFA8E084DF0895A4E175DF5C
:10050000A4E179DFA8E271DFA8E07BDF0895A4E130
:1005100072DFACE36ADFA8E074DF0895A0E565DF71
:10052000A8E075DF2C9A2C98089522524380C43895
:100530008073BD21215244012441408404A120D272
:10054000440124410084046121DE4301243100631D
:100550001CE7225240812409001085292252408143
:1005600024090010852979CCF700CF73C0E73CE758
:10057000000003000003D2661C000000048000009D
:100580004A9120000000048000004690A000000076
:1005900004800001CE90980000000480000052907A
:1005A0008400000004800000529104000000030059
:1005B0000003CE663800000004000003D2661C0071
:1005C0000000040000004A91200000000400000028
:1005D0004690A000000004000001CE9098000000AA
:1005E00004000000529084000000040000005291BA
:1005F0000400000004000003CE6638000000030081
:100600000003D2661C000000048000004A91200014
:100610000000040000004690A0000000020000015D
:10062000CE9098000000010000005290840000006D
:100630000080000052910400000007800003CE6695
:100640003800000003800003D2661C000000040094
:1006500000004A9120000000040000004690A00025
:10066000000003000001CE9098000000040000008C
:100670005290840000000400000052910400000029
:1006800003800003CE663800000004000003D26639
:100690001C000000040000004A912000000004003B
:1006A00000004690A000000007800001CE90980056
:1006B00000000480000052908400000004800000CC
:1006C00052910400000004800003CE663800000050
:1006D00003800003D2661C000000040000004A9161
:1006E00020000000040000004690A00000000380ED
:1006F0000001CE909800000000800000529084001D
:1007000000000080000052910400000007800003F8
:10071000CE663800000003000003D2661C00000013
:10072000048000004A9120000000048000004690F0
:10073000A000000003800001CE909800000000801F
:1007400000005290840000000480000052910400D8
:10075000000003000003CE66380000000400000320
:10076000D2661C000000040000004A912000000036
:10077000040000004690A000000004000001CE909C
:100780009800000004000000529084000000040063
:10079000000052910400000007800003CE6638007C
:1007A000000003000003D2661C000000048000006B
:1007B0004A9120000000048000004690A000000044
:1007C00003000001CE9098000000048000005290C9
:1007D0008400000004800000529104000000030027
:1007E0000003CE663800000003000003D2661C0040
:1007F0000000048000004A91200000000400000076
:100800004690A000000007000001CE909800000074
:100810000480000052908400000004800000529187
:100820000400000003000003CE66380000006000F2
:100830000000000000000000900000000000000028
:100840000000900000000000000000009000000088
:100850000000000000009000000000000000000008
:100860009000000000000000000060000000000098
:100870000000000020000000000000000000200038
:100880000000000000000000200000000000000048
:100890000000200000000000000000002000000018
:1008A0000000000000002000000000000000000028
:1008B00020000000000000000000F0000000000028
:1008C00000000000100000000000000000002000F8
:1008D00000000000000000004000000000000000D8
:1008E00000008000000000000000000090000000F8
:1008F0000000000000006000000000000000000098
:1009000070000000000000000000800000000000F7
:100910000000000080000000000000000000300027
:100920000000000000000000800000000000000047
:1009300000008000000000000000000070000000C7
:100940000000000000008000000000000000000027
:100950008000000000000000000080000000000097
:1009600000000000F0000000000000000000900007
:1009700000000000000000009000000000000000E7
:100980000000900000000000000000007000000067
:1009900000000000000080000000000000000000D7
:1009A0008000000000000000000070000000000057
:1009B0000000000010000000000000000000100017
:1009C0000000000000000000F00000000000000037
:1009D0000000600000000000000000009000000027
:1009E0000000000000009000000000000000000077
:1009F0007000000000000000000010000000000077
:100A000000000000900000000000000000006000F6
:100A10000000000000000000800000000000000056
:100A200000008000000000000000000080000000C6
:100A30000000000000008000000000000000000036
:100A400080000000000000000000800000000000A6
:100A500000000000F0000000000000000000600046
:100A600000000000000000009000000000000000F6
:100A70000000900000000000000000006000000086
:100A800000000000000090000000000000000000D6
:100A90009000000000000000000060000000000066
:100AA0000000000060000000000000000000900056
:100AB00000000000000000008000000000000000B6
:100AC0000000E000000000000000000090000000B6
:100AD0000000000000009000000000000000000086
:100AE0006000000000000000000003000000087724
:100AF0009C000000048000000880A4000000048026
:100B000000000880A40000000480000008639C002E
:100B10000000048000000810A40000000480000011
:100B20000810A4000000030000001EE79C00000065
:100B30000400000008779C0000000400000008800A
:100B4000A4000000040000000880A40000000400CD
:100B5000000008639C000000040000000810A400CE
:100B60000000040000000810A400000004000000C1
:100B70001EE79C0000000780000008779C00000032
:100B8000008000000880A400000001000000088030
:100B9000A40000000200000008639C0000000400A4
:100BA00000000810A4000000048000000810A40049
:100BB0000000030000001EE79C000000038000000E
:100BC00008779C000000040000000880A4000000DA
:100BD000040000000880A400000003000000086377
:100BE0009C000000040000000810A40000000400A5
:100BF00000000810A4000000038000001EE79C0015
:100C000000000400000008779C0000000480000041
:100C10000880A4000000048000000880A4000000F8
:100C20000780000008639C0000000480000008109A
:100C3000A4000000048000000810A400000004804C
:100C400000001EE79C0000000380000008779C0065
:100C50000000040000000880A40000000400000060
:100C60000880A40000000380000008639C000000CE
:100C7000008000000810A4000000008000000810A0
:100C8000A4000000078000001EE79C000000030095
:100C9000000008779C000000048000000880A40089
:100CA0000000048000000880A40000000380000011
:100CB00008639C000000008000000810A4000000F1
:100CC000048000000810A4000000030000001EE7DC
:100CD0009C0000000400000008779C000000040055
:100CE00000000880A4000000040000000880A400A8
:100CF00000000400000008639C00000004000000E5
:100D00000810A4000000040000000810A400000067
:100D1000078000001EE79C00000003000000087729
:100D20009C000000048000000880A40000000480F3
:100D300000000880A40000000300000008639C007D
:100D40000000048000000810A400000004800000DF
:100D50000810A4000000030000001EE79C00000033
:100D60000300000008779C00000004800000088059
:100D7000A4000000040000000880A4000000070098
:100D8000000008639C000000048000000810A4001C
:100D90000000048000000810A40000000300000010
:040DA0001EE79C00AE
:00000001FF
