:020000020000FC
:0200000065C2D7
:02003400BCC44A
:10004000ADC42098289A22982A9A219A239A249A11
:10005000259A2B9A2C9A2D9AA0EFAAB95B9A5A9AB4
:10006000599A589A14E010938100789411E01093F3
:100070006F0010E01093030005E81DEE009385006B
:1000800010938400089510E403D01695E9F70895BD
:10009000AF93BF930F93AAE0B59108E00E946A0066
:1000A000AA95D1F708E0B12F0E946A002C9A0FD0D0
:1000B0002C980F91BF91AF910895AFEFAA95BFEF24
:1000C000BA959FEF9A95F1F7D9F7C1F70895F5DF43
:1000D000F4DF08952B98B7FD2B9A2D9A2D98BB0F1E
:1000E0000A95C1F70895A5E0DA9F8001A3E00A0F01
:1000F000D02F402F4F71487F4695469546954395A2
:1001000008950E947300A1E04A1301C008C0A2E054
:100110004A1301C007C0A3E04A130AC006C00E94E8
:10012000570109C00E94620106C00E946F0103C00E
:100130000E947C0100C0AFE5A31BB3E0C0E1A9D0E1
:100140000E948701A0E2BFEFCFEF0E944901A1E02A
:10015000AE1301C002C0EA95D4CFD62FEF2F80E0B6
:1001600008950E9473005F9A5E9A5D9A5C9A2EEFE2
:10017000AEE18A1301C068C05F985E9A5D9A5C9A8E
:1001800000004B9B32C04A9B2FC0499B2DC0489B0F
:100190002BC000C05F9A5E985D9A5C9A00004B9BF2
:1001A0002BC04A9B21C0499B1FC0489B1DC000C05B
:1001B0005F9A5E9A5D985C9A00004B9B24C04A9BB4
:1001C00013C0499B11C0489B0FC000C05F9A5E9A44
:1001D0005D9A5C9800004B9B1DC04A9B05C0499BE3
:1001E00003C0489B01C0BFCFBECF2FEF0E94570175
:1001F000A1E04A1329C015C02FEF0E946201A2E0BE
:100200004A1322C00EC02FEF0E946F01A3E04A13D1
:100210001BC007C02FEF0E947C01A4E04A1314C04A
:1002200000C07BED0E945001AFE0B8E0C0E30E9447
:10023000490190E090936E000E948701A0E2B0E433
:10024000C0E50E94490109C070E10E945001AFE180
:10025000B8E0C0E30E9449011BC3A1E0AE1301C096
:1002600002C0EA957ECF5395F395D62FEF2FA0E8E5
:10027000BFEFCFEF0E94490106C32B982D9A2D980E
:10028000AA95D9F708952B9A2D9A2D98AA95D9F762
:100290000895CA95F1F7BA95E1F7AA95D1F70895AF
:1002A00001E000936E0004E005BD76BD0895ACE367
:1002B000E4DFA4E1E8DFA8E0E6DF2C9A0E94670013
:1002C0002C980895A8E2D9DFA4E1DDDFA4E1D5DF11
:1002D000A8E0D9DF2C9A0E9467002C980895A4E129
:1002E000CCDFA4E1D0DFA8E2C8DFA8E0CCDF2C9A05
:1002F0000E9467002C980895A4E1C5DFACE3BDDF40
:10030000A8E0C1DF2C9A0E9467002C980895A8E508
:10031000B4DF2C9A0E9467002C9808950E94500127
:10032000A1E0BFEF00E0801301C03EC05D2F00E000
:10033000501303C0FAE0EAE233C001E0501303C0F7
:10034000FAE0E0E72DC002E0501303C0FAE0E6EB6C
:1003500027C003E0501303C0FAE0ECEF21C004E033
:10036000501303C0FBE0E2E41BC005E0501303C0E0
:10037000FBE0E8E815C006E0501303C0FBE0EEEC3C
:100380000FC007E0501303C0FCE0E4E109C008E03F
:10039000501303C0FCE0EAE503C0FCE0E0EA00C063
:1003A0000E944300562F3DC0532F00E0501303C05E
:1003B000FFE0E2EA33C001E0501303C0FFE0E8EEE3
:1003C0002DC002E0501303C0F0E1EEE227C003E0CD
:1003D000501303C0F0E1E4E721C004E0501303C070
:1003E000F0E1EAEB1BC005E0501303C0F1E1E0E0EF
:1003F00015C006E0501303C0F1E1E6E40FC007E0CA
:10040000501303C0F1E1ECE809C008E0501303C049
:10041000F1E1E2ED03C0F2E1E8E100C00E94430037
:10042000542F00E0501303C0FCE0E6EE33C001E0BF
:10043000501303C0FDE0ECE22DC002E0501303C0F6
:10044000FDE0E2E727C003E0501303C0FDE0E8EB66
:1004500021C004E0501303C0FDE0EEEF1BC005E037
:10046000501303C0FEE0E4E415C006E0501303C0DF
:10047000FEE0EAE80FC007E0501303C0FEE0E0ED45
:1004800009C008E0501303C0FFE0E6E103C0FFE04D
:10049000ECE500C00E9443001A9901C07BC2BA95E6
:1004A00000E0B0133FCFAA95A0133CCF0895F9996F
:1004B000FECF22BD11BDF89AE0B50895F999FECF9F
:1004C00022BD11BDE0BDFA9AF99A0895C1E00E94DB
:1004D000210000C07FEA0E945001A1E0B2E0C0E824
:1004E000F9E0E4EE0E9443001A9901C0BCC1CA952C
:1004F000B9F7BA95A9F7AA9599F770EC0E9450013F
:10050000A1E0B2E0C0E8F9E0E4EE0E9443001A99ED
:1005100001C0A9C1CA95B9F7BA95A9F7AA9599F7E3
:1005200075E90E945001A1E0B2E0C0E8F9E0E4EE14
:100530000E9443001A9901C096C1CA95B9F7BA95AD
:10054000A9F7AA9599F775E90E945001A1E0B2E0D8
:10055000C0E8F2E1EEE50E9443001A9901C083C1B0
:10056000CA95B9F7BA95A9F7AA9599F77BEA0E94B7
:100570005001A1E0B2E0C0E8F2E1EEE50E944300E4
:100580001A9901C070C1CA95B9F7BA95A9F7AA9589
:1005900099F778EB0E945001A1E0B2E0C0E8F2E1E7
:1005A000EEE50E9443001A9901C05DC1CA95B9F7F2
:1005B000BA95A9F7AA9599F770EA0E945001A1E0AF
:1005C000B2E0C0E8F9E0E4EE0E9443001A9901C0ED
:1005D0004AC1CA95B9F7BA95A9F7AA9599F77FEADA
:1005E0000E945001A1E0B2E0C0E8F9E0E4EE0E9410
:1005F00043001A9901C037C1CA95B9F7BA95A9F74E
:10060000AA9599F770EC0E945001A1E0B2E0C0E811
:10061000F9E0E4EE0E9443001A9901C024C1CA9592
:10062000B9F7BA95A9F7AA9599F770EC0E9450010D
:10063000A1E0B2E0C0E8F2E1EEE50E9443001A99C1
:1006400001C011C1CA95B9F7BA95A9F7AA9599F74A
:1006500075E90E945001A1E0B2E0C0E8F2E1EEE5E8
:100660000E9443001A9901C0FEC0CA95B9F7BA9515
:10067000A9F7AA9599F77BEA0E945001A1E0B2E0A0
:10068000C0E8F2E1EEE50E9443001A9901C0EBC018
:10069000CA95B9F7BA95A9F7AA9599F778E80E948B
:1006A0005001A1E0B2E0C0E8F9E0E4EE0E944300AE
:1006B0001A9901C0D8C0CA95B9F7BA95A9F7AA95F1
:1006C00099F770EA0E945001A1E0B2E0C0E8F9E0B9
:1006D000E4EE0E9443001A9901C0C5C0CA95B9F75B
:1006E000BA95A9F7AA9599F77FEA0E945001A1E06F
:1006F000B2E0C0E8F9E0E4EE0E9443001A9901C0BC
:10070000B2C0CA95B9F7BA95A9F7AA9599F77FEA41
:100710000E945001A1E0B2E0C0E8F2E1EEE50E94E3
:1007200043001A9901C09FC0CA95B9F7BA95A9F7B5
:10073000AA9599F770EC0E945001A1E0B2E0C0E8E0
:10074000F2E1EEE50E9443001A9901C08CC0CA95FF
:10075000B9F7BA95A9F7AA9599F775E90E945001DA
:10076000A1E0B2E0C0E8F2E1EEE50E9443001A9990
:1007700001C079C0CA95B9F7BA95A9F7AA9599F7B2
:1007800078E80E945001A1E0B2E0C0E8F9E0E4EEB0
:100790000E9443001A9901C066C0CA95B9F7BA957C
:1007A000A9F7AA9599F770EA0E945001A1E0B2E07A
:1007B000C0E8F9E0E4EE0E9443001A9901C053C07A
:1007C000CA95B9F7BA95A9F7AA9599F77FEA0E9451
:1007D0005001A1E0B2E0C0E8F9E0E4EE0E9443007D
:1007E0001A9901C040C0CA95B9F7BA95A9F7AA9558
:1007F00099F775E90E945001A1E0B2E0C0E8F2E18A
:10080000EEE50E9443001A9901C02DC0CA95B9F7C0
:10081000BA95A9F7AA9599F77BEA0E945001A1E041
:10082000B2E0C0E8F2E1EEE50E9443001A9901C08F
:100830001AC0CA95B9F7BA95A9F7AA9599F778EBAE
:100840000E945001A1E0B2E0C0E8F2E1EEE50E94B2
:1008500043001A9901C007C0CA95B9F7BA95A9F71C
:10086000AA9599F737CEF894609184007894A1E026
:10087000CA13622F90E090936E00D62FE0E0F1E073
:1008800030E050E000C0EF2F0E9481000E94B100D4
:1008900090E090936E002998F89420E010E00E9478
:1008A000570278945E170CF407C0E52FF89420E007
:1008B00010E00E945E027894A4E65A1784F4D0E017
:1008C0002AE0BAE0521718F02B0FD395D9F72B1B5B
:1008D000521B60E0561301C005C06395D9F7D9E0FB
:1008E00069E000C0A4E6EA1784F430E02AE0BAE048
:1008F000E21718F02B0F3395D9F72B1BE21B40E0C2
:10090000E41301C005C04395D9F739E049E000C0C0
:10091000F89420918400789490E090936F0081E0A7
:1009200075EA0E948E0178EB0E948E017EE80E949B
:100930008E0180E075EA0E948E0178E80E948E01A7
:100940007BE90E948E017FEA0E945001A1E0B2E0A3
:10095000C0E8F9E0E4EE0E9443001A9901C01AC011
:10096000CA95B9F7BA95A9F7AA9599F77BEA0E94B3
:100970005001A1E0B2E0C0E8F9E0E4EE0E944300DB
:100980001A9901C007C0CA95B9F7BA95A9F7AA95EF
:1009900099F7C5CF90E090936E0099CD76BD1899E8
:1009A00004C070E070936E001895199A18959F9383
:1009B0007F9375E89DEE70938500909384009FEF80
:1009C000291303C000C080E002C0839500C090E4FA
:1009D000391301C004C033957F919F9118957F9181
:1009E0009F91189522524300C43080633D212152CB
:1009F00044812449409484A120D2440124410084AC
:100A0000046121DE4301243100631CE7225240814E
:100A10002409001085292252448124490094852903
:100A200079CCF300CF33C0633CE700000300000340
:100A3000D26618000000048000004A9124000000E3
:100A4000048000004690A000000004800001CE90C9
:100A50009800000004800000529084000000048090
:100A6000000052912400000003000003CE6618002D
:100A7000000004000003D26618000000040000001B
:100A80004A9124000000040000004690A0000000ED
:100A900004000001CE909800000005000000529074
:100AA00084000000060000005291240000000400B1
:100AB0000003CE661800000007800003D26618000D
:100AC0000000008000004A912400000001000000A6
:100AD0004690A000000002000001CE9098000000A7
:100AE0000400000052908400000004800000529135
:100AF0002400000003000003CE661800000003007D
:100B00000003D26618000000048000004A9124000F
:100B10000000040000004690A00000000300000157
:100B2000CE90980000000400000052908400000065
:100B30000480000052912400000003000003CE66F0
:100B40001800000004000003D26618000000040032
:100B500000004A9124000000040000004690A0001C
:100B6000000007800001CE90980000000480000083
:100B70005290840000000480000052912400000084
:100B800004800003CE661800000003000003D26654
:100B900018000000048000004A91240000000400B6
:100BA00000004690A000000003800001CE90980055
:100BB00000000080000052908400000000800000CF
:100BC00052912400000007800003CE661800000048
:100BD00003000003D26618000000048000004A9160
:100BE00024000000048000004690A0000000038064
:100BF0000001CE9098000000008000005290840018
:100C00000000048000005291240000000300000353
:100C1000CE661800000004000003D2661800000031
:100C2000040000004A9124000000040000004690E7
:100C3000A000000006000001CE9098000000040013
:100C400000005290840000000480000052912400B3
:100C5000000007800003CE661800000003000003B8
:100C6000D26618000000048000004A9124000000B1
:100C7000048000004690A000000003000001CE9018
:100C8000980000000480000052908400000004805E
:100C9000000052912400000003000003CE661800FB
:100CA000000003000003D26618000000048000006A
:100CB0004A9124000000040000004690A0000000BB
:100CC00007000001CE9098000000048000005290C0
:100CD0008400000004800000529124000000030002
:100CE0000003CE6618000000600000000000000055
:100CF00000009000000000000000000090000000D4
:100D00000000000000009000000000000000000053
:100D100090000000000000000000900000000000B3
:100D20000000000060000000000000000000400023
:100D30000000000000000000400000000000000073
:100D40000000400000000000000000004000000023
:100D50000000000000005000000000000000000043
:100D600060000000000000000000400000000000E3
:100D700000000000F0000000000000000000100073
:100D80000000000000000000200000000000000043
:100D90000000400000000000000000008000000093
:100DA00000000000000090000000000000000000B3
:100DB0006000000000000000000060000000000073
:100DC0000000000090000000000000000000800013
:100DD00000000000000000006000000000000000B3
:100DE00000008000000000000000000090000000F3
:100DF0000000000000006000000000000000000093
:100E000080000000000000000000800000000000E2
:100E10000000000080000000000000000000F00062
:100E20000000000000000000900000000000000032
:100E30000000900000000000000000009000000092
:100E40000000000000006000000000000000000042
:100E50009000000000000000000080000000000082
:100E60000000000070000000000000000000100002
:100E70000000000000000000100000000000000062
:100E80000000F00000000000000000006000000012
:100E900000000000000090000000000000000000C2
:100EA0009000000000000000000070000000000042
:100EB0000000000010000000000000000000900092
:100EC00000000000000000006000000000000000C2
:100ED0000000800000000000000000008000000012
:100EE0000000000000008000000000000000000082
:100EF000C0000000000000000000800000000000B2
:100F00000000000090000000000000000000F00061
:100F10000000000000000000600000000000000071
:100F200000009000000000000000000090000000A1
:100F30000000000000006000000000000000000051
:100F40009000000000000000000090000000000081
:100F500000000000600000000000000000006000D1
:100F600000000000000000009000000000000000F1
:100F7000000080000000000000000000E000000011
:100F800000000000000090000000000000000000D1
:100F90009000000000000000000060000000000061
:100FA000000000000300000008679C0000000480AF
:100FB00000000890A4000000048000000880A40045
:100FC00000000480000008639C0000000480000012
:100FD0000810A4000000048000000890A400000095
:100FE000030000001E679C0000000400000008676A
:100FF0009C000000040000000890A4000000040011
:1010000000000880A40000000400000008639C00A9
:101010000000050000000810A40000000600000009
:101020000890A4000000040000001E679C0000005F
:101030000780000008679C00000000800000089006
:10104000A4000000010000000880A40000000200CD
:10105000000008639C000000040000000810A400C9
:101060000000048000000890A400000003000000BD
:101070001E679C0000000300000008679C00000041
:10108000048000000890A400000004000000088014
:10109000A40000000300000008639C00000004009E
:1010A00000000810A4000000048000000890A400C4
:1010B0000000030000001E679C0000000400000008
:1010C00008679C000000040000000890A4000000D5
:1010D000040000000880A4000000078000000863EE
:1010E0009C000000048000000810A40000000480A0
:1010F00000000890A4000000048000001E679C000F
:1011000000000300000008679C000000048000004D
:101110000890A4000000040000000880A400000063
:101120000380000008639C0000000080000008109D
:10113000A4000000008000000890A40000000780C8
:1011400000001E679C0000000300000008679C0070
:101150000000048000000890A4000000048000004B
:101160000880A40000000380000008639C000000C9
:10117000008000000810A400000004800000089017
:10118000A4000000030000001E679C000000040093
:10119000000008679C000000040000000890A40004
:1011A0000000040000000880A40000000600000009
:1011B00008639C000000040000000810A400000068
:1011C000048000000890A4000000078000001E6753
:1011D0009C0000000300000008679C0000000480E1
:1011E00000000890A4000000048000000880A40013
:1011F00000000300000008639C0000000480000061
:101200000810A4000000048000000890A400000062
:10121000030000001E679C00000003000000086738
:101220009C000000048000000890A400000004005E
:1012300000000880A40000000700000008639C0074
:101240000000048000000810A400000004800000DA
:101250000890A4000000030000001E679C001A4CC8
:101260006300C9024CF024C02A5294812903D21091
:101270003D204A5294012902521025004A529301FE
:101280002902521024C04B5290812D02521024206A
:101290002AD294812B02521025201A526300C902CF
:0412A0004C1024C00A
:00000001FF
