:020000020000FC
:0200000062C2DA
:02003400B1C455
:10004000A9C422982A9A219A239A249A259A2B9A0B
:100050002C9A2D9AA0EFAAB95B9A5A9A599A589A53
:1000600014E010938100789411E010936F0010E079
:100070001093030005E81DEE0093850010938400A3
:10008000089510E403D01695E9F70895AF93BF9350
:100090000F931F93AAE0B59108E02B98B7FD2B9A18
:1000A0002D9A2D98BB0F0A95C1F7AA95A1F7A8E044
:1000B0002B9817FD2B9A2D9A2D98110FAA95C1F701
:1000C0002C9A10D02C981F910F91BF91AF91089549
:1000D000AFEFAA95BFEFBA959FEF9A95F1F7D9F7D1
:1000E000C1F70895F5DFF4DF0895A5E0DA9F8001F8
:1000F000A3E00A0FD02F402F4F71487F46954695B9
:100100004695439508950E947500A1E04A1301C0E9
:1001100008C0A2E04A1301C007C0A3E04A130AC006
:1001200006C00E94610109C00E946C0106C00E94C5
:10013000790103C00E94860100C0AFE5A31BB3E0B4
:10014000C0E1B1D00E949101A0E2BFEFCFEF0E94C9
:100150005301A1E0AE1301C002C0EA95D4CFD62F5F
:10016000EF2F80E008950E9475002EEFAEE18A1314
:1001700001C068C05F985E9A5D9A5C9A00004B9BD4
:1001800032C04A9B2FC0499B2DC0489B2BC000C04A
:100190005F9A5E985D9A5C9A00004B9B2BC04A9BCD
:1001A00021C0499B1FC0489B1DC000C05F9A5E9A3A
:1001B0005D985C9A00004B9B24C04A9B13C0499BEE
:1001C00011C0489B0FC000C05F9A5E9A5D9A5C9810
:1001D00000004B9B1DC04A9B05C0499B03C0489B28
:1001E00001C0C3CFC2CF2FEF0E946101A1E04A132B
:1001F00029C015C02FEF0E946C01A2E04A1322C053
:100200000EC02FEF0E947901A3E04A131BC007C064
:100210002FEF0E948601A4E04A1314C000C07BEDBA
:100220000E945A01AFE0B8E0C0E30E94530190E0A1
:1002300090936E000E949101A0E2B0E4C0E50E949C
:10024000530109C070E10E945A01AFE1B8E0C0E378
:100250000E94530121C3A1E0AE1301C002C0EA9580
:1002600082CF5395F395D62FEF2FA0E8BFEFCFEFB6
:100270000E9453010CC32B982D9A2D98AA95D9F75B
:1002800008952B9A2D9A2D98AA95D9F708952B9A0F
:100290002D9A2D98AA95D9F708952B982D9A2D98D7
:1002A000AA95D9F70895CA95F1F7BA95E1F7AA95F5
:1002B000D1F7089501E000936E0004E005BD76BD1E
:1002C0000895ACE3D8DFA4E1DCDFA8E0E0DF2C9AFE
:1002D0000E9472002C980895A8E2CDDFA4E1D1DF3E
:1002E000A4E1C9DFA8E0D3DF2C9A0E9472002C9809
:1002F0000895A4E1C0DFA4E1C4DFA8E2BCDFA8E068
:10030000C6DF2C9A0E9472002C980895A4E1B9DFF0
:10031000ACE3B1DFA8E0BBDF2C9A0E9472002C98FE
:100320000895A0E5A8DFA8E0B8DF2C9A0E9472002B
:100330002C9808950E945A01A1E0BFED00E08013BF
:1003400001C03EC05D2F00E0501303C0FAE0E4E1BD
:1003500033C001E0501303C0FAE0EAE52DC002E02B
:10036000501303C0FAE0E0EA27C003E0501303C0D3
:10037000FAE0E6EE21C004E0501303C0FBE0ECE23B
:100380001BC005E0501303C0FBE0E2E715C006E028
:10039000501303C0FBE0E8EB0FC007E0501303C0AD
:1003A000FBE0EEEF09C008E0501303C0FCE0E4E41A
:1003B00003C0FCE0EAE800C00E944100562F3DC0A7
:1003C000532F00E0501303C0FFE0ECE833C001E01E
:1003D000501303C0FFE0E2ED2DC002E0501303C054
:1003E000F0E1E8E127C003E0501303C0F0E1EEE5DF
:1003F00021C004E0501303C0F0E1E4EA1BC005E0B3
:10040000501303C0F0E1EAEE15C006E0501303C03C
:10041000F1E1E0E30FC007E0501303C0F1E1E6E7CC
:1004200009C008E0501303C0F1E1ECEB03C0F2E1B6
:10043000E2E000C00E944100542F00E0501303C0CE
:10044000FCE0E0ED33C001E0501303C0FDE0E6E165
:100450002DC002E0501303C0FDE0ECE527C003E02F
:10046000501303C0FDE0E2EA21C004E0501303C0D2
:10047000FDE0E8EE1BC005E0501303C0FEE0EEE235
:1004800015C006E0501303C0FEE0E4E70FC007E02C
:10049000501303C0FEE0EAEB09C008E0501303C0AC
:1004A000FFE0E0E003C0FFE0E6E400C00E9441009E
:1004B0001A9901C06BC2BA9500E0B0133FCFAA955C
:1004C000A0133CCF0895A0E0A09300DDC1E00E94FE
:1004D000210000C07FEA0E945A01A1E0B2E0C0E31F
:1004E000F9E0EEEC0E9441001A9901C0BCC1CA9526
:1004F000B9F7BA95A9F7AA9599F770EC0E945A0135
:10050000A1E0B2E0C0E3F9E0EEEC0E9441001A99EC
:1005100001C0A9C1CA95B9F7BA95A9F7AA9599F7E3
:1005200075E90E945A01A1E0B2E0C0E3F9E0EEEC07
:100530000E9441001A9901C096C1CA95B9F7BA95AF
:10054000A9F7AA9599F775E90E945A01A1E0B2E0CE
:10055000C0E3F9E0EEEC0E9441001A9901C083C1AA
:10056000CA95B9F7BA95A9F7AA9599F77BEA0E94B7
:100570005A01A1E0B2E0C0E3F9E0EEEC0E944100D4
:100580001A9901C070C1CA95B9F7BA95A9F7AA9589
:1005900099F778EB0E945A01A1E0B2E0C0E3F9E0DC
:1005A000EEEC0E9441001A9901C05DC1CA95B9F7ED
:1005B000BA95A9F7AA9599F770EA0E945A01A1E0A5
:1005C000B2E0C0E3F9E0EEEC0E9441001A9901C0EC
:1005D0004AC1CA95B9F7BA95A9F7AA9599F77FEADA
:1005E0000E945A01A1E0B2E0C0E3F9E0EEEC0E9403
:1005F00041001A9901C037C1CA95B9F7BA95A9F750
:10060000AA9599F770EC0E945A01A1E0B2E0C0E30C
:10061000F9E0EEEC0E9441001A9901C024C1CA958C
:10062000B9F7BA95A9F7AA9599F770EC0E945A0103
:10063000A1E0B2E0C0E3F9E0EEEC0E9441001A99BB
:1006400001C011C1CA95B9F7BA95A9F7AA9599F74A
:1006500075E90E945A01A1E0B2E0C0E3F9E0EEECD6
:100660000E9441001A9901C0FEC0CA95B9F7BA9517
:10067000A9F7AA9599F77BEA0E945A01A1E0B2E096
:10068000C0E3F9E0EEEC0E9441001A9901C0EBC012
:10069000CA95B9F7BA95A9F7AA9599F778E80E948B
:1006A0005A01A1E0B2E0C0E3F9E0EEEC0E944100A3
:1006B0001A9901C0D8C0CA95B9F7BA95A9F7AA95F1
:1006C00099F770EA0E945A01A1E0B2E0C0E3F9E0B4
:1006D000EEEC0E9441001A9901C0C5C0CA95B9F755
:1006E000BA95A9F7AA9599F77FEA0E945A01A1E065
:1006F000B2E0C0E3F9E0EEEC0E9441001A9901C0BB
:10070000B2C0CA95B9F7BA95A9F7AA9599F77FEA41
:100710000E945A01A1E0B2E0C0E3F9E0EEEC0E94D1
:1007200041001A9901C09FC0CA95B9F7BA95A9F7B7
:10073000AA9599F770EC0E945A01A1E0B2E0C0E3DB
:10074000F9E0EEEC0E9441001A9901C08CC0CA95F4
:10075000B9F7BA95A9F7AA9599F775E90E945A01D0
:10076000A1E0B2E0C0E3F9E0EEEC0E9441001A998A
:1007700001C079C0CA95B9F7BA95A9F7AA9599F7B2
:1007800078E80E945A01A1E0B2E0C0E3F9E0EEECA3
:100790000E9441001A9901C066C0CA95B9F7BA957E
:1007A000A9F7AA9599F770EA0E945A01A1E0B2E070
:1007B000C0E3F9E0EEEC0E9441001A9901C053C079
:1007C000CA95B9F7BA95A9F7AA9599F77FEA0E9451
:1007D0005A01A1E0B2E0C0E3F9E0EEEC0E94410072
:1007E0001A9901C040C0CA95B9F7BA95A9F7AA9558
:1007F00099F775E90E945A01A1E0B2E0C0E3F9E07F
:10080000EEEC0E9441001A9901C02DC0CA95B9F7BB
:10081000BA95A9F7AA9599F77BEA0E945A01A1E037
:10082000B2E0C0E3F9E0EEEC0E9441001A9901C089
:100830001AC0CA95B9F7BA95A9F7AA9599F778EBAE
:100840000E945A01A1E0B2E0C0E3F9E0EEEC0E94A0
:1008500041001A9901C007C0CA95B9F7BA95A9F71E
:10086000AA9599F737CEF894609184007894A1E026
:10087000CA13609100FFA09100DD6A0F90E0909391
:100880006E00D62FE0E0F1E030E050E000C0EF2F46
:100890000E9483000E94B30090E090936E0029981C
:1008A000A5E0A093810080E0E09100DD5E170CF4EC
:1008B00003C0509300DDE52F90E090936F00A4E615
:1008C0005A1784F4D0E02AE0BAE0521718F02B0F40
:1008D000D395D9F72B1B521B60E0561301C005C0FE
:1008E0006395D9F7D9E069E000C0A4E6EA1784F47B
:1008F00030E02AE0BAE0E21718F02B0F3395D9F771
:100900002B1BE21B40E0E41301C005C04395D9F75F
:1009100039E049E000C081E075EA0E949A0178EB75
:100920000E949A0180E07EE80E949A0175EA0E9486
:100930009A0178E80E949A017BE90E949A017FEA75
:100940000E945A01A1E0B2E0C0E3F9E0EEEC0E949F
:1009500041001A9901C01AC0CA95B9F7BA95A9F70A
:10096000AA9599F77BEA0E945A01A1E0B2E0C0E3A0
:10097000F9E0EEEC0E9441001A9901C007C0CA9547
:10098000B9F7BA95A9F7AA9599F7C5CF90E09093D2
:100990006E009DCD76BD18959F937F9375E89DEE73
:1009A00070938500909384009FEF291303C000C0CB
:1009B00080E002C0839500C090E4391301C004C0F8
:1009C00033957F919F9118957F919F911895225211
:1009D0004300C43080633D21215244812449409426
:1009E00084A120D2440124410084046121DE43011A
:1009F000243100631CE7225240812409001085291C
:100A00002252448124490094852979CCF300CF33C4
:100A1000C0633CE7000003000003D266180000003A
:100A2000048000004A9124000000048000004690E9
:100A3000A000000004800001CE9098000000048017
:100A400000005290840000000480000052912400B5
:100A5000000003000003CE6618000000040000033D
:100A6000D26618000000040000004A912400000033
:100A7000040000004690A000000004000001CE9099
:100A80009800000004000000529084000000040060
:100A9000000052912400000004000003CE661800FC
:100AA000000007800003D2661800000000800000EC
:100AB0004A9124000000010000004690A0000000C0
:100AC00002000001CE909800000004000000529047
:100AD0008400000004800000529124000000030004
:100AE0000003CE661800000003000003D266180061
:100AF0000000048000004A9124000000040000006F
:100B00004690A000000003000001CE909800000075
:100B10000400000052908400000004800000529104
:100B20002400000003000003CE661800000004004B
:100B30000003D26618000000040000004A9124005F
:100B40000000040000004690A000000007800001A3
:100B5000CE909800000004800000529084000000B5
:100B60000480000052912400000004800003CE663F
:100B70001800000003000003D26618000000048083
:100B800000004A9124000000040000004690A000EC
:100B9000000003800001CE9098000000008000005B
:100BA0005290840000000080000052912400000058
:100BB00007800003CE661800000003000003D26621
:100BC00018000000048000004A9124000000048006
:100BD00000004690A000000003800001CE90980025
:100BE000000000800000529084000000048000009B
:100BF00052912400000003000003CE66180000009C
:100C000004000003D26618000000040000004A91AE
:100C100024000000040000004690A0000000060030
:100C20000001CE9098000000040000005290840063
:100C3000000004800000529124000000078000039F
:100C4000CE661800000003000003D2661800000002
:100C5000048000004A9124000000048000004690B7
:100C6000A000000003000001CE9098000000048066
:100C70000000529084000000048000005291240083
:100C8000000003000003CE6618000000030000030C
:100C9000D26618000000048000004A912400000081
:100CA000040000004690A000000007000001CE9064
:100CB000980000000480000052908400000004802E
:100CC000000052912400000003000003CE661800CB
:100CD0000000600000000000000000009000000024
:100CE0000000000000009000000000000000000074
:100CF00090000000000000000000900000000000D4
:100D000000000000900000000000000000006000F3
:100D100000000000000000002000000000000000B3
:100D20000000200000000000000000002000000083
:100D30000000000000002000000000000000000093
:100D40002000000000000000000020000000000063
:100D50000000000020000000000000000000F00083
:100D60000000000000000000100000000000000073
:100D70000000200000000000000000004000000013
:100D800000000000000080000000000000000000E3
:100D90009000000000000000000060000000000063
:100DA0000000000060000000000000000000900053
:100DB00000000000000000008000000000000000B3
:100DC0000000600000000000000000008000000043
:100DD0000000000000009000000000000000000083
:100DE0006000000000000000000080000000000023
:100DF00000000000800000000000000000008000F3
:100E00000000000000000000F000000000000000F2
:100E100000009000000000000000000090000000B2
:100E20000000000000009000000000000000000032
:100E300060000000000000000000900000000000C2
:100E400000000000800000000000000000007000B2
:100E50000000000000000000100000000000000082
:100E6000000010000000000000000000F000000082
:100E70000000000000006000000000000000000012
:100E80009000000000000000000090000000000042
:100E900000000000700000000000000000001000D2
:100EA00000000000000000009000000000000000B2
:100EB0000000600000000000000000008000000052
:100EC00000000000000080000000000000000000A2
:100ED00080000000000000000000C00000000000D2
:100EE00000000000800000000000000000009000F2
:100EF0000000000000000000F00000000000000002
:100F000000006000000000000000000090000000F1
:100F10000000000000009000000000000000000041
:100F200060000000000000000000900000000000D1
:100F300000000000900000000000000000006000C1
:100F40000000000000000000600000000000000041
:100F50000000900000000000000000008000000081
:100F6000000000000000E0000000000000000000A1
:100F70009000000000000000000090000000000051
:100F800000000000600000000000000000000300FE
:100F9000000008679C000000048000000890A40086
:100FA0000000048000000880A4000000048000000D
:100FB00008639C000000048000000810A4000000EA
:100FC000048000000890A4000000030000001E67D9
:100FD0009C0000000400000008679C000000040062
:100FE00000000890A4000000040000000880A40095
:100FF00000000400000008639C00000004000000E2
:101000000810A4000000040000000890A4000000E4
:10101000040000001E679C000000078000000867B5
:101020009C000000008000000890A4000000010067
:1010300000000880A40000000200000008639C007B
:101040000000040000000810A4000000048000005C
:101050000890A4000000030000001E679C00000030
:101060000300000008679C00000004800000089056
:10107000A4000000040000000880A4000000030099
:10108000000008639C000000040000000810A40099
:101090000000048000000890A4000000030000008D
:1010A0001E679C0000000400000008679C00000010
:1010B000040000000890A400000004000000088064
:1010C000A40000000780000008639C00000004806A
:1010D00000000810A4000000048000000890A40094
:1010E0000000048000001E679C0000000300000058
:1010F00008679C000000048000000890A400000025
:10110000040000000880A4000000038000000863C1
:101110009C000000008000000810A4000000008077
:1011200000000890A4000000078000001E679C00DB
:1011300000000300000008679C000000048000001D
:101140000890A4000000048000000880A4000000B3
:101150000380000008639C0000000080000008106D
:10116000A4000000048000000890A4000000030018
:1011700000001E679C0000000400000008679C003F
:101180000000040000000890A4000000040000001B
:101190000880A40000000600000008639C00000016
:1011A000040000000810A400000004800000089063
:1011B000A4000000078000001E679C0000000300E0
:1011C000000008679C000000048000000890A40054
:1011D0000000048000000880A4000000030000005C
:1011E00008639C000000048000000810A4000000B8
:1011F000048000000890A4000000030000001E67A7
:101200009C0000000300000008679C0000000480B0
:1012100000000890A4000000040000000880A40062
:1012200000000700000008639C000000048000002C
:101230000810A4000000048000000890A400000032
:08124000030000001E679C0082
:00000001FF
