:020000020000FC
:0200000070C2CC
:020034008EC478
:1000400086C422982A9A219A239A249A259A2B9A2E
:100050002C9A2D9AA0EFAAB9AFE0ABB914E0109397
:100060008100789411E010936F0010E0109303006A
:1000700005E81DEE0093850010938400089510E4B8
:1000800027E004D016952A95E1F70895AF93BF9322
:100090000F931F93AAE0B59108E02B98B7FD2B9A18
:1000A0002D9A2D98BB0F0A95C1F7AA95A1F7A8E044
:1000B0002B9817FD2B9A2D9A2D98110FAA95C1F701
:1000C0002C9A10D02C981F910F91BF91AF91089549
:1000D000AFEFAA95BFEFBA959FEF9A95F1F7D9F7D1
:1000E000C1F70895F5DFF4DF0895A4E65A170CF57B
:1000F000D0E02AE0BAE0521718F02B0FD395D9F7C9
:100100002B1B521B60E0561301C002C06395D9F748
:10011000EA1794F430E02AE0E21718F02B0F339539
:10012000D9F72B1BE21B40E0E41301C0089543956F
:10013000D9F7D9E069E0ECCF39E049E00895A5E0CE
:10014000DA9F8001A3E00A0FD02F402F4F71487F24
:10015000469546954695439508950E949F00A1E0D7
:100160004A1301C008C0A2E04A1301C007C0A3E0BF
:100170004A130AC006C00E946F0109C00E947A019A
:1001800006C00E94870103C00E94940100C0AFE531
:10019000A31BB3E0C0E195D00E949F01A0E2BFEF96
:1001A000CFEF0E946101A1E0AE1301C002C0EA9549
:1001B000D4CFD62FEF2F08950E949F002EEFAEE1EF
:1001C0008A1301C049C0489B07C0499B06C04A9B8F
:1001D00005C04B9B04C0F2CFF1CFF0CFEFCF2FEF94
:1001E00000EF1FE00BB91AB900000000000000008A
:1001F0004F9B07C04E9B0BC04D9B0FC04C9B13C029
:1002000034C00E946F01A1E04A1326C012C00E94B0
:100210007A01A2E04A1320C00CC00E948701A3E02B
:100220004A131AC006C00E949401A4E04A1314C0E5
:1002300000C07BED0E946801AFE0B8E0C0E30E941F
:10024000610190E090936E000E949F01A0E2B0E4F3
:10025000C0E50E94610109C070E10E946801AFE140
:10026000B8E0C0E30E9461011EC30FE010EF0BB9BC
:100270001AB9A1E0AE1301C002C0EA959DCF539513
:10028000F395D62FEF2FA0E8BFEFCFEF0E946101CB
:1002900005C32B982D9A2D98AA95D9F708952B9AD6
:1002A0002D9A2D98AA95D9F708952B9A2D9A2D98C5
:1002B000AA95D9F708952B982D9A2D98AA95D9F734
:1002C0000895CA95F1F7BA95E1F7AA95D1F708957F
:1002D00001E000936E0004E005BD76BD0895ACE337
:1002E000D8DFA4E1DCDFA8E0E0DF2C9A0E947200F6
:1002F0002C980895A8E2CDDFA4E1D1DFA4E1C9DF05
:10030000A8E0D3DF2C9A0E9472002C980895A4E1F3
:10031000C0DFA4E1C4DFA8E2BCDFA8E0C6DF2C9AFE
:100320000E9472002C980895A4E1B9DFACE3B1DF1C
:10033000A8E0BBDF2C9A0E9472002C980895A0E5DB
:10034000A8DFA8E0B8DF2C9A0E9472002C980895CC
:100350000E946801A1E0BFED00E0801301C03EC033
:100360005D2F00E0501303C0F9E0EEEC33C001E074
:10037000501303C0FAE0E4E12DC002E0501303C0C3
:10038000FAE0EAE527C003E0501303C0FAE0E0EA30
:1003900021C004E0501303C0FAE0E6EE1BC005E004
:1003A000501303C0FBE0ECE215C006E0501303C09D
:1003B000FBE0E2E70FC007E0501303C0FBE0E8EB0F
:1003C00009C008E0501303C0FBE0EEEF03C0FCE0FF
:1003D000E4E400C00E943F00562F3DC05D2F00E0C6
:1003E000501303C0FFE0E6E433C001E0501303C044
:1003F000FFE0ECE82DC002E0501303C0FFE0E2EDA7
:1004000027C003E0501303C0F0E1E8E121C004E09D
:10041000501303C0F0E1EEE51BC005E0501303C02C
:10042000F0E1E4EA15C006E0501303C0F0E1EAEEA3
:100430000FC007E0501303C0F1E1E0E309C008E09A
:10044000501303C0F1E1E6E703C0F1E1ECEB00C0BB
:100450000E943F00542F00E0501303C0FCE0EAE884
:1004600033C001E0501303C0FCE0E0ED2DC002E01A
:10047000501303C0FDE0E6E127C003E0501303C0C2
:10048000FDE0ECE521C004E0501303C0FDE0E2EA2A
:100490001BC005E0501303C0FDE0E8EE15C006E008
:1004A000501303C0FEE0EEE20FC007E0501303C09C
:1004B000FEE0E4E709C008E0501303C0FEE0EAEB09
:1004C00003C0FFE0E0E000C00E943F001A9901C0B5
:1004D0003AC2BA9500E0B0133FCFAA95A0133CCF23
:1004E0000895A0E0A09300DD0E94210000C07FEAF3
:1004F0000E946801A1E0B2E0C0E3F9E0E8E80E94F0
:100500003F001A9901C0BCC1CA95B9F7BA95A9F7BD
:10051000AA9599F770EC0E946801A1E0B2E0C0E3EF
:10052000F9E0E8E80E943F001A9901C0A9C1CA9504
:10053000B9F7BA95A9F7AA9599F775E90E946801E4
:10054000A1E0B2E0C0E3F9E0E8E80E943F001A99B8
:1005500001C096C1CA95B9F7BA95A9F7AA9599F7B6
:1005600075E90E946801A1E0B2E0C0E3F9E0E8E8C3
:100570000E943F001A9901C083C1CA95B9F7BA9584
:10058000A9F7AA9599F77BEA0E946801A1E0B2E079
:10059000C0E3F9E0E8E80E943F001A9901C070C189
:1005A000CA95B9F7BA95A9F7AA9599F778EB0E9479
:1005B0006801A1E0B2E0C0E3F9E0E8E80E943F0092
:1005C0001A9901C05DC1CA95B9F7BA95A9F7AA955C
:1005D00099F770EA0E946801A1E0B2E0C0E3F9E097
:1005E000E8E80E943F001A9901C04AC1CA95B9F7CC
:1005F000BA95A9F7AA9599F77FEA0E946801A1E048
:10060000B2E0C0E3F9E0E8E80E943F001A9901C0B7
:1006100037C1CA95B9F7BA95A9F7AA9599F770ECB9
:100620000E946801A1E0B2E0C0E3F9E0E8E80E94BE
:100630003F001A9901C024C1CA95B9F7BA95A9F724
:10064000AA9599F770EC0E946801A1E0B2E0C0E3BE
:10065000F9E0E8E80E943F001A9901C011C1CA956B
:10066000B9F7BA95A9F7AA9599F775E90E946801B3
:10067000A1E0B2E0C0E3F9E0E8E80E943F001A9987
:1006800001C0FEC0CA95B9F7BA95A9F7AA9599F71E
:100690007BEA0E946801A1E0B2E0C0E3F9E0E8E88B
:1006A0000E943F001A9901C0EBC0CA95B9F7BA95EC
:1006B000A9F7AA9599F778E80E946801A1E0B2E04D
:1006C000C0E3F9E0E8E80E943F001A9901C0D8C0F1
:1006D000CA95B9F7BA95A9F7AA9599F770EA0E9451
:1006E0006801A1E0B2E0C0E3F9E0E8E80E943F0061
:1006F0001A9901C0C5C0CA95B9F7BA95A9F7AA95C4
:1007000099F77FEA0E946801A1E0B2E0C0E3F9E056
:10071000E8E80E943F001A9901C0B2C0CA95B9F733
:10072000BA95A9F7AA9599F77FEA0E946801A1E016
:10073000B2E0C0E3F9E0E8E80E943F001A9901C086
:100740009FC0CA95B9F7BA95A9F7AA9599F770EC21
:100750000E946801A1E0B2E0C0E3F9E0E8E80E948D
:100760003F001A9901C08CC0CA95B9F7BA95A9F78C
:10077000AA9599F775E90E946801A1E0B2E0C0E38B
:10078000F9E0E8E80E943F001A9901C079C0CA95D3
:10079000B9F7BA95A9F7AA9599F778E80E94680180
:1007A000A1E0B2E0C0E3F9E0E8E80E943F001A9956
:1007B00001C066C0CA95B9F7BA95A9F7AA9599F785
:1007C00070EA0E946801A1E0B2E0C0E3F9E0E8E865
:1007D0000E943F001A9901C053C0CA95B9F7BA9553
:1007E000A9F7AA9599F77FEA0E946801A1E0B2E013
:1007F000C0E3F9E0E8E80E943F001A9901C040C058
:10080000CA95B9F7BA95A9F7AA9599F775E90E941B
:100810006801A1E0B2E0C0E3F9E0E8E80E943F002F
:100820001A9901C02DC0CA95B9F7BA95A9F7AA952A
:1008300099F77BEA0E946801A1E0B2E0C0E3F9E029
:10084000E8E80E943F001A9901C01AC0CA95B9F79A
:10085000BA95A9F7AA9599F778EB0E946801A1E0EB
:10086000B2E0C0E3F9E0E8E80E943F001A9901C055
:1008700007C0CA95B9F7BA95A9F7AA9599F737CEDF
:10088000F89460918400789490E090936E00D62F55
:10089000E0E0F1E030E043E050E000C0EF2F0E94E4
:1008A000AD000E94DC0090E090936E002998A5E0D6
:1008B000A093810080E0E09100DD5E170CF403C09E
:1008C000509300DDE52F90E090936F000E9475003B
:1008D00081E075EA0E94A80178EB0E94A80180E0FF
:1008E0007EE80E94A80175EA0E94A80178E80E94AB
:1008F000A8017BE90E94A8017FEA0E946801A1E0AB
:10090000B2E0C0E3F9E0E8E80E943F001A9901C0B4
:100910001AC0CA95B9F7BA95A9F7AA9599F77BEACB
:100920000E946801A1E0B2E0C0E3F9E0E8E80E94BB
:100930003F001A9901C007C0CA95B9F7BA95A9F73F
:10094000AA9599F7C5CF90E090936E00CDCD76BD76
:1009500018959F937F9375E89DEE70938500909313
:1009600084009FEF291303C000C080E002C083957C
:1009700000C090E4391301C004C033957F919F916A
:1009800018957F919F91189522524300C43080633F
:100990003D21215244812449409484A120D2440124
:1009A00024410084046121DE4301243100631CE7FB
:1009B0002252408124090010852922524481244971
:1009C0000094852979CCF300CF33C0633CE7000065
:1009D00003000003D26618000000048000004A9162
:1009E00024000000048000004690A0000000048065
:1009F0000001CE9098000000048000005290840016
:100A00000000048000005291240000000300000355
:100A1000CE661800000004000003D2661800000033
:100A2000040000004A9124000000040000004690E9
:100A3000A000000004000001CE9098000000040017
:100A40000000529084000000040000005291240035
:100A5000000004000003CE6618000000030000033D
:100A6000D26618000000048000004A9124000000B3
:100A7000040000004690A000000002000001CE909B
:100A800098000000010000005290840000000080E7
:100A9000000052912400000007800003CE66180079
:100AA000000003000003D26618000000048000006C
:100AB0004A9124000000040000004690A0000000BD
:100AC00003000001CE909800000004000000529046
:100AD0008400000004800000529124000000030004
:100AE0000003CE661800000004000003D266180060
:100AF0000000040000004A912400000004000000EF
:100B00004690A000000007800001CE9098000000F1
:100B10000480000052908400000004800000529184
:100B20002400000004800003CE66180000000300CB
:100B30000003D26618000000048000004A912400DF
:100B40000000040000004690A000000003800001A7
:100B5000CE909800000000800000529084000000B9
:100B60000080000052912400000007800003CE6640
:100B70001800000003000003D26618000000048083
:100B800000004A9124000000048000004690A0006C
:100B9000000003800001CE9098000000008000005B
:100BA0005290840000000480000052912400000054
:100BB00003000003CE661800000004000003D266A4
:100BC00018000000040000004A9124000000040006
:100BD00000004690A000000006000001CE909800A2
:100BE0000000040000005290840000000480000017
:100BF00052912400000007800003CE661800000018
:100C000003000003D26618000000048000004A912F
:100C100024000000048000004690A00000000300B3
:100C20000001CE90980000000480000052908400E3
:100C30000000048000005291240000000300000323
:100C4000CE661800000003000003D2661800000002
:100C5000048000004A912400000004000000469037
:100C6000A000000007000001CE9098000000048062
:100C70000000529084000000048000005291240083
:100C8000000003000003CE661800000060000000B2
:100C900000000000000090000000000000000000C4
:100CA0009000000000000000000090000000000024
:100CB0000000000090000000000000000000900014
:100CC00000000000000000006000000000000000C4
:100CD00000002000000000000000000020000000D4
:100CE00000000000000020000000000000000000E4
:100CF00020000000000000000000200000000000B4
:100D000000000000200000000000000000002000A3
:100D10000000000000000000F000000000000000E3
:100D20000000100000000000000000002000000093
:100D30000000000000004000000000000000000073
:100D40008000000000000000000090000000000093
:100D500000000000600000000000000000006000D3
:100D600000000000000000009000000000000000F3
:100D70000000800000000000000000006000000093
:100D800000000000000080000000000000000000E3
:100D90009000000000000000000060000000000063
:100DA0000000000080000000000000000000800043
:100DB00000000000000000008000000000000000B3
:100DC0000000F000000000000000000090000000A3
:100DD0000000000000009000000000000000000083
:100DE0009000000000000000000060000000000013
:100DF00000000000900000000000000000008000E3
:100E00000000000000000000700000000000000072
:100E100000001000000000000000000010000000B2
:100E2000000000000000F0000000000000000000D2
:100E300060000000000000000000900000000000C2
:100E400000000000900000000000000000007000A2
:100E50000000000000000000100000000000000082
:100E60000000900000000000000000006000000092
:100E700000000000000080000000000000000000F2
:100E80008000000000000000000080000000000062
:100E900000000000C0000000000000000000800012
:100EA00000000000000000009000000000000000B2
:100EB0000000F000000000000000000060000000E2
:100EC0000000000000009000000000000000000092
:100ED0009000000000000000000060000000000022
:100EE00000000000900000000000000000009000E2
:100EF0000000000000000000600000000000000092
:100F000000006000000000000000000090000000F1
:100F10000000000000008000000000000000000051
:100F2000E000000000000000000090000000000051
:100F300000000000900000000000000000006000C1
:100F400000000000000000000300000008679C0093
:100F50000000048000000890A4000000048000004D
:100F60000880A40000000480000008639C000000CA
:100F7000048000000810A400000004800000089015
:100F8000A4000000030000001E679C000000040095
:100F9000000008679C000000040000000890A40006
:100FA0000000040000000880A4000000040000000D
:100FB00008639C000000040000000810A40000006A
:100FC000040000000890A4000000040000001E6758
:100FD0009C0000000780000008679C000000008063
:100FE00000000890A4000000010000000880A40098
:100FF00000000200000008639C00000004000000E4
:101000000810A4000000048000000890A400000064
:10101000030000001E679C0000000300000008673A
:101020009C000000048000000890A4000000040060
:1010300000000880A40000000300000008639C007A
:101040000000040000000810A4000000048000005C
:101050000890A4000000030000001E679C00000030
:101060000400000008679C000000040000000890D5
:10107000A4000000040000000880A4000000078015
:10108000000008639C000000048000000810A40019
:101090000000048000000890A4000000048000000C
:1010A0001E679C0000000300000008679C00000011
:1010B000048000000890A4000000040000000880E4
:1010C000A40000000380000008639C000000008072
:1010D00000000810A4000000008000000890A40098
:1010E0000000078000001E679C0000000300000055
:1010F00008679C000000048000000890A400000025
:10110000048000000880A400000003800000086341
:101110009C000000008000000810A4000000048073
:1011200000000890A4000000030000001E679C005F
:1011300000000400000008679C000000040000009C
:101140000890A4000000040000000880A400000033
:101150000600000008639C00000004000000081066
:10116000A4000000048000000890A4000000078094
:1011700000001E679C0000000300000008679C0040
:101180000000048000000890A4000000048000001B
:101190000880A40000000300000008639C00000019
:1011A000048000000810A4000000048000000890E3
:1011B000A4000000030000001E679C000000030064
:1011C000000008679C000000048000000890A40054
:1011D0000000040000000880A400000007000000D8
:1011E00008639C000000048000000810A4000000B8
:1011F000048000000890A4000000030000001E67A7
:021200009C0050
:00000001FF
